{
  "contractName": "Market",
  "abi": [
    {
      "inputs": [
        {
          "internalType": "address",
          "name": "_preToken",
          "type": "address"
        }
      ],
      "stateMutability": "nonpayable",
      "type": "constructor"
    },
    {
      "anonymous": false,
      "inputs": [
        {
          "indexed": true,
          "internalType": "uint256",
          "name": "id",
          "type": "uint256"
        },
        {
          "indexed": true,
          "internalType": "string",
          "name": "title",
          "type": "string"
        },
        {
          "indexed": false,
          "internalType": "string",
          "name": "description",
          "type": "string"
        }
      ],
      "name": "InformationAdded",
      "type": "event"
    },
    {
      "anonymous": false,
      "inputs": [
        {
          "indexed": true,
          "internalType": "address",
          "name": "previousOwner",
          "type": "address"
        },
        {
          "indexed": true,
          "internalType": "address",
          "name": "newOwner",
          "type": "address"
        }
      ],
      "name": "OwnershipTransferred",
      "type": "event"
    },
    {
      "inputs": [
        {
          "internalType": "uint256",
          "name": "",
          "type": "uint256"
        },
        {
          "internalType": "uint256",
          "name": "",
          "type": "uint256"
        }
      ],
      "name": "downVotes",
      "outputs": [
        {
          "internalType": "address",
          "name": "user",
          "type": "address"
        },
        {
          "internalType": "uint256",
          "name": "value",
          "type": "uint256"
        },
        {
          "internalType": "uint256",
          "name": "timestamp",
          "type": "uint256"
        }
      ],
      "stateMutability": "view",
      "type": "function",
      "constant": true
    },
    {
      "inputs": [
        {
          "internalType": "uint256",
          "name": "",
          "type": "uint256"
        }
      ],
      "name": "informations",
      "outputs": [
        {
          "internalType": "uint256",
          "name": "id",
          "type": "uint256"
        },
        {
          "internalType": "string",
          "name": "title",
          "type": "string"
        },
        {
          "internalType": "string",
          "name": "description",
          "type": "string"
        },
        {
          "internalType": "string",
          "name": "resolveUrl",
          "type": "string"
        },
        {
          "internalType": "uint256",
          "name": "startTimestamp",
          "type": "uint256"
        },
        {
          "internalType": "uint256",
          "name": "endTimestamp",
          "type": "uint256"
        },
        {
          "internalType": "uint256",
          "name": "totalUpValue",
          "type": "uint256"
        },
        {
          "internalType": "uint256",
          "name": "totalDownValue",
          "type": "uint256"
        },
        {
          "internalType": "uint256",
          "name": "resolved",
          "type": "uint256"
        }
      ],
      "stateMutability": "view",
      "type": "function",
      "constant": true
    },
    {
      "inputs": [],
      "name": "owner",
      "outputs": [
        {
          "internalType": "address",
          "name": "",
          "type": "address"
        }
      ],
      "stateMutability": "view",
      "type": "function",
      "constant": true
    },
    {
      "inputs": [],
      "name": "preToken",
      "outputs": [
        {
          "internalType": "address",
          "name": "",
          "type": "address"
        }
      ],
      "stateMutability": "view",
      "type": "function",
      "constant": true
    },
    {
      "inputs": [],
      "name": "renounceOwnership",
      "outputs": [],
      "stateMutability": "nonpayable",
      "type": "function"
    },
    {
      "inputs": [],
      "name": "totalInformation",
      "outputs": [
        {
          "internalType": "uint256",
          "name": "",
          "type": "uint256"
        }
      ],
      "stateMutability": "view",
      "type": "function",
      "constant": true
    },
    {
      "inputs": [
        {
          "internalType": "address",
          "name": "newOwner",
          "type": "address"
        }
      ],
      "name": "transferOwnership",
      "outputs": [],
      "stateMutability": "nonpayable",
      "type": "function"
    },
    {
      "inputs": [
        {
          "internalType": "uint256",
          "name": "",
          "type": "uint256"
        },
        {
          "internalType": "uint256",
          "name": "",
          "type": "uint256"
        }
      ],
      "name": "upVotes",
      "outputs": [
        {
          "internalType": "address",
          "name": "user",
          "type": "address"
        },
        {
          "internalType": "uint256",
          "name": "value",
          "type": "uint256"
        },
        {
          "internalType": "uint256",
          "name": "timestamp",
          "type": "uint256"
        }
      ],
      "stateMutability": "view",
      "type": "function",
      "constant": true
    },
    {
      "inputs": [],
      "name": "isOwner",
      "outputs": [
        {
          "internalType": "bool",
          "name": "_isOwner",
          "type": "bool"
        }
      ],
      "stateMutability": "view",
      "type": "function",
      "constant": true
    },
    {
      "inputs": [
        {
          "internalType": "string",
          "name": "_title",
          "type": "string"
        },
        {
          "internalType": "string",
          "name": "_description",
          "type": "string"
        },
        {
          "internalType": "string",
          "name": "_resolveUrl",
          "type": "string"
        },
        {
          "internalType": "uint256",
          "name": "_endTimestamp",
          "type": "uint256"
        }
      ],
      "name": "addInformation",
      "outputs": [],
      "stateMutability": "nonpayable",
      "type": "function"
    },
    {
      "inputs": [
        {
          "internalType": "uint256",
          "name": "_id",
          "type": "uint256"
        },
        {
          "internalType": "uint256",
          "name": "_value",
          "type": "uint256"
        },
        {
          "internalType": "bool",
          "name": "_isUpVote",
          "type": "bool"
        }
      ],
      "name": "vote",
      "outputs": [],
      "stateMutability": "payable",
      "type": "function",
      "payable": true
    },
    {
      "inputs": [
        {
          "internalType": "uint256",
          "name": "_id",
          "type": "uint256"
        }
      ],
      "name": "getInformation",
      "outputs": [
        {
          "internalType": "string",
          "name": "",
          "type": "string"
        },
        {
          "internalType": "string",
          "name": "",
          "type": "string"
        },
        {
          "components": [
            {
              "internalType": "address",
              "name": "user",
              "type": "address"
            },
            {
              "internalType": "uint256",
              "name": "value",
              "type": "uint256"
            },
            {
              "internalType": "uint256",
              "name": "timestamp",
              "type": "uint256"
            }
          ],
          "internalType": "struct Market.Amount[]",
          "name": "",
          "type": "tuple[]"
        },
        {
          "components": [
            {
              "internalType": "address",
              "name": "user",
              "type": "address"
            },
            {
              "internalType": "uint256",
              "name": "value",
              "type": "uint256"
            },
            {
              "internalType": "uint256",
              "name": "timestamp",
              "type": "uint256"
            }
          ],
          "internalType": "struct Market.Amount[]",
          "name": "",
          "type": "tuple[]"
        }
      ],
      "stateMutability": "view",
      "type": "function",
      "constant": true
    },
    {
      "inputs": [
        {
          "internalType": "uint256",
          "name": "_id",
          "type": "uint256"
        },
        {
          "internalType": "bool",
          "name": "isSuccessfull",
          "type": "bool"
        }
      ],
      "name": "distribute",
      "outputs": [],
      "stateMutability": "payable",
      "type": "function",
      "payable": true
    }
  ],
  "bytecode": "0x608060405260006002553480156200001657600080fd5b50604051620024063803806200240683398181016040528101906200003c919062000187565b6200005c62000050620000a460201b60201c565b620000ac60201b60201c565b80600160006101000a81548173ffffffffffffffffffffffffffffffffffffffff021916908373ffffffffffffffffffffffffffffffffffffffff1602179055505062000201565b600033905090565b60008060009054906101000a900473ffffffffffffffffffffffffffffffffffffffff169050816000806101000a81548173ffffffffffffffffffffffffffffffffffffffff021916908373ffffffffffffffffffffffffffffffffffffffff1602179055508173ffffffffffffffffffffffffffffffffffffffff168173ffffffffffffffffffffffffffffffffffffffff167f8be0079c531659141344cd1fd0a4f28419497f9722a3daafe3b4186f6b6457e060405160405180910390a35050565b6000815190506200018181620001e7565b92915050565b6000602082840312156200019a57600080fd5b6000620001aa8482850162000170565b91505092915050565b6000620001c082620001c7565b9050919050565b600073ffffffffffffffffffffffffffffffffffffffff82169050919050565b620001f281620001b3565b8114620001fe57600080fd5b50565b6121f580620002116000396000f3fe6080604052600436106100c25760003560e01c80636ffea7bd1161007f5780638f32d59b116100595780638f32d59b1461023e578063a00806e414610269578063eaa42568146102ae578063f2fde38b146102ee576100c2565b80636ffea7bd146101d1578063715018a6146101fc5780638da5cb5b14610213576100c2565b806323d6ef3e146100c75780632fcea6c414610106578063366b580c14610122578063379c66e01461014d57806367ece805146101765780636a18ff7a146101b5575b600080fd5b3480156100d357600080fd5b506100ee60048036038101906100e991906118a8565b610317565b6040516100fd93929190611c27565b60405180910390f35b610120600480360381019061011b919061186c565b61037e565b005b34801561012e57600080fd5b5061013761086e565b6040516101449190611d5c565b60405180910390f35b34801561015957600080fd5b50610174600480360381019061016f9190611798565b610874565b005b34801561018257600080fd5b5061019d600480360381019061019891906118a8565b610a48565b6040516101ac93929190611c27565b60405180910390f35b6101cf60048036038101906101ca91906118e4565b610aaf565b005b3480156101dd57600080fd5b506101e6610d2a565b6040516101f39190611bac565b60405180910390f35b34801561020857600080fd5b50610211610d50565b005b34801561021f57600080fd5b50610228610dd8565b6040516102359190611bac565b60405180910390f35b34801561024a57600080fd5b50610253610e01565b6040516102609190611c5e565b60405180910390f35b34801561027557600080fd5b50610290600480360381019061028b9190611843565b610e4f565b6040516102a599989796959493929190611d77565b60405180910390f35b3480156102ba57600080fd5b506102d560048036038101906102d09190611843565b611035565b6040516102e59493929190611c9b565b60405180910390f35b3480156102fa57600080fd5b5061031560048036038101906103109190611746565b611416565b005b6004602052816000526040600020818154811061033357600080fd5b9060005260206000209060030201600091509150508060000160009054906101000a900473ffffffffffffffffffffffffffffffffffffffff16908060010154908060020154905083565b61038661150e565b73ffffffffffffffffffffffffffffffffffffffff166103a4610dd8565b73ffffffffffffffffffffffffffffffffffffffff16146103fa576040517f08c379a00000000000000000000000000000000000000000000000000000000081526004016103f190611d3c565b60405180910390fd5b816000811415801561040e57506002548111155b61044d576040517f08c379a000000000000000000000000000000000000000000000000000000000815260040161044490611d1c565b60405180910390fd5b6000600360008581526020019081526020016000209050600081600601549050600082600701549050841561066e5760006004600088815260200190815260200160002080549050905060005b81811015610667576000600460008a815260200190815260200160002082815481106104ef577f4e487b7100000000000000000000000000000000000000000000000000000000600052603260045260246000fd5b906000526020600020906003020160010154905060008582866105129190611f61565b61051c9190611f30565b9050600160009054906101000a900473ffffffffffffffffffffffffffffffffffffffff1673ffffffffffffffffffffffffffffffffffffffff1663a9059cbb600460008d815260200190815260200160002085815481106105a7577f4e487b7100000000000000000000000000000000000000000000000000000000600052603260045260246000fd5b906000526020600020906003020160000160009054906101000a900473ffffffffffffffffffffffffffffffffffffffff1683856105e59190611eda565b6040518363ffffffff1660e01b8152600401610602929190611bfe565b602060405180830381600087803b15801561061c57600080fd5b505af1158015610630573d6000803e3d6000fd5b505050506040513d601f19601f82011682018060405250810190610654919061176f565b50505061066081611516565b905061049a565b505061085c565b60006005600088815260200190815260200160002080549050905060005b81811015610859576000600560008a815260200190815260200160002082815481106106e1577f4e487b7100000000000000000000000000000000000000000000000000000000600052603260045260246000fd5b906000526020600020906003020160010154905060008482876107049190611f61565b61070e9190611f30565b9050600160009054906101000a900473ffffffffffffffffffffffffffffffffffffffff1673ffffffffffffffffffffffffffffffffffffffff1663a9059cbb600560008d81526020019081526020016000208581548110610799577f4e487b7100000000000000000000000000000000000000000000000000000000600052603260045260246000fd5b906000526020600020906003020160000160009054906101000a900473ffffffffffffffffffffffffffffffffffffffff1683856107d79190611eda565b6040518363ffffffff1660e01b81526004016107f4929190611bfe565b602060405180830381600087803b15801561080e57600080fd5b505af1158015610822573d6000803e3d6000fd5b505050506040513d601f19601f82011682018060405250810190610846919061176f565b50505061085281611516565b905061068c565b50505b60018360080181905550505050505050565b60025481565b61087c61150e565b73ffffffffffffffffffffffffffffffffffffffff1661089a610dd8565b73ffffffffffffffffffffffffffffffffffffffff16146108f0576040517f08c379a00000000000000000000000000000000000000000000000000000000081526004016108e790611d3c565b60405180910390fd5b6108fb600254611516565b6002819055506040518061012001604052806002548152602001858152602001848152602001838152602001428152602001828152602001600081526020016000815260200160008152506003600060025481526020019081526020016000206000820151816000015560208201518160010190805190602001906109819291906115e7565b50604082015181600201908051906020019061099e9291906115e7565b5060608201518160030190805190602001906109bb9291906115e7565b506080820151816004015560a0820151816005015560c0820151816006015560e08201518160070155610100820151816008015590505083604051610a009190611b95565b60405180910390206002547f46bf6cd255baf7e79d9c9535808e8a3fa2de6588b20a1f887ca96875b20d869885604051610a3a9190611c79565b60405180910390a350505050565b60056020528160005260406000208181548110610a6457600080fd5b9060005260206000209060030201600091509150508060000160009054906101000a900473ffffffffffffffffffffffffffffffffffffffff16908060010154908060020154905083565b6000600360008581526020019081526020016000209050600160009054906101000a900473ffffffffffffffffffffffffffffffffffffffff1673ffffffffffffffffffffffffffffffffffffffff166323b872dd3330866040518463ffffffff1660e01b8152600401610b2593929190611bc7565b602060405180830381600087803b158015610b3f57600080fd5b505af1158015610b53573d6000803e3d6000fd5b505050506040513d601f19601f82011682018060405250810190610b77919061176f565b50600060405180606001604052803373ffffffffffffffffffffffffffffffffffffffff1681526020018581526020014281525090508215610c6d5783826006016000828254610bc79190611eda565b925050819055506004600086815260200190815260200160002081908060018154018082558091505060019003906000526020600020906003020160009091909190915060008201518160000160006101000a81548173ffffffffffffffffffffffffffffffffffffffff021916908373ffffffffffffffffffffffffffffffffffffffff16021790555060208201518160010155604082015181600201555050610d23565b83826007016000828254610c819190611eda565b925050819055506005600086815260200190815260200160002081908060018154018082558091505060019003906000526020600020906003020160009091909190915060008201518160000160006101000a81548173ffffffffffffffffffffffffffffffffffffffff021916908373ffffffffffffffffffffffffffffffffffffffff160217905550602082015181600101556040820151816002015550505b5050505050565b600160009054906101000a900473ffffffffffffffffffffffffffffffffffffffff1681565b610d5861150e565b73ffffffffffffffffffffffffffffffffffffffff16610d76610dd8565b73ffffffffffffffffffffffffffffffffffffffff1614610dcc576040517f08c379a0000000000000000000000000000000000000000000000000000000008152600401610dc390611d3c565b60405180910390fd5b610dd66000611523565b565b60008060009054906101000a900473ffffffffffffffffffffffffffffffffffffffff16905090565b6000610e0b610dd8565b73ffffffffffffffffffffffffffffffffffffffff163373ffffffffffffffffffffffffffffffffffffffff161415610e475760019050610e4c565b600090505b90565b6003602052806000526040600020600091509050806000015490806001018054610e789061207b565b80601f0160208091040260200160405190810160405280929190818152602001828054610ea49061207b565b8015610ef15780601f10610ec657610100808354040283529160200191610ef1565b820191906000526020600020905b815481529060010190602001808311610ed457829003601f168201915b505050505090806002018054610f069061207b565b80601f0160208091040260200160405190810160405280929190818152602001828054610f329061207b565b8015610f7f5780601f10610f5457610100808354040283529160200191610f7f565b820191906000526020600020905b815481529060010190602001808311610f6257829003601f168201915b505050505090806003018054610f949061207b565b80601f0160208091040260200160405190810160405280929190818152602001828054610fc09061207b565b801561100d5780601f10610fe25761010080835404028352916020019161100d565b820191906000526020600020905b815481529060010190602001808311610ff057829003601f168201915b5050505050908060040154908060050154908060060154908060070154908060080154905089565b60608060608060006003600087815260200190815260200160002060405180610120016040529081600082015481526020016001820180546110769061207b565b80601f01602080910402602001604051908101604052809291908181526020018280546110a29061207b565b80156110ef5780601f106110c4576101008083540402835291602001916110ef565b820191906000526020600020905b8154815290600101906020018083116110d257829003601f168201915b505050505081526020016002820180546111089061207b565b80601f01602080910402602001604051908101604052809291908181526020018280546111349061207b565b80156111815780601f1061115657610100808354040283529160200191611181565b820191906000526020600020905b81548152906001019060200180831161116457829003601f168201915b5050505050815260200160038201805461119a9061207b565b80601f01602080910402602001604051908101604052809291908181526020018280546111c69061207b565b80156112135780601f106111e857610100808354040283529160200191611213565b820191906000526020600020905b8154815290600101906020018083116111f657829003601f168201915b505050505081526020016004820154815260200160058201548152602001600682015481526020016007820154815260200160088201548152505090508060200151816040015160046000898152602001908152602001600020600560008a815260200190815260200160002081805480602002602001604051908101604052809291908181526020016000905b8282101561133d57838290600052602060002090600302016040518060600160405290816000820160009054906101000a900473ffffffffffffffffffffffffffffffffffffffff1673ffffffffffffffffffffffffffffffffffffffff1673ffffffffffffffffffffffffffffffffffffffff16815260200160018201548152602001600282015481525050815260200190600101906112a1565b50505050915080805480602002602001604051908101604052809291908181526020016000905b8282101561140057838290600052602060002090600302016040518060600160405290816000820160009054906101000a900473ffffffffffffffffffffffffffffffffffffffff1673ffffffffffffffffffffffffffffffffffffffff1673ffffffffffffffffffffffffffffffffffffffff1681526020016001820154815260200160028201548152505081526020019060010190611364565b5050505090509450945094509450509193509193565b61141e61150e565b73ffffffffffffffffffffffffffffffffffffffff1661143c610dd8565b73ffffffffffffffffffffffffffffffffffffffff1614611492576040517f08c379a000000000000000000000000000000000000000000000000000000000815260040161148990611d3c565b60405180910390fd5b600073ffffffffffffffffffffffffffffffffffffffff168173ffffffffffffffffffffffffffffffffffffffff161415611502576040517f08c379a00000000000000000000000000000000000000000000000000000000081526004016114f990611cfc565b60405180910390fd5b61150b81611523565b50565b600033905090565b6000600182019050919050565b60008060009054906101000a900473ffffffffffffffffffffffffffffffffffffffff169050816000806101000a81548173ffffffffffffffffffffffffffffffffffffffff021916908373ffffffffffffffffffffffffffffffffffffffff1602179055508173ffffffffffffffffffffffffffffffffffffffff168173ffffffffffffffffffffffffffffffffffffffff167f8be0079c531659141344cd1fd0a4f28419497f9722a3daafe3b4186f6b6457e060405160405180910390a35050565b8280546115f39061207b565b90600052602060002090601f016020900481019282611615576000855561165c565b82601f1061162e57805160ff191683800117855561165c565b8280016001018555821561165c579182015b8281111561165b578251825591602001919060010190611640565b5b509050611669919061166d565b5090565b5b8082111561168657600081600090555060010161166e565b5090565b600061169d61169884611e4a565b611e19565b9050828152602081018484840111156116b557600080fd5b6116c0848285612039565b509392505050565b6000813590506116d78161217a565b92915050565b6000813590506116ec81612191565b92915050565b60008151905061170181612191565b92915050565b600082601f83011261171857600080fd5b813561172884826020860161168a565b91505092915050565b600081359050611740816121a8565b92915050565b60006020828403121561175857600080fd5b6000611766848285016116c8565b91505092915050565b60006020828403121561178157600080fd5b600061178f848285016116f2565b91505092915050565b600080600080608085870312156117ae57600080fd5b600085013567ffffffffffffffff8111156117c857600080fd5b6117d487828801611707565b945050602085013567ffffffffffffffff8111156117f157600080fd5b6117fd87828801611707565b935050604085013567ffffffffffffffff81111561181a57600080fd5b61182687828801611707565b925050606061183787828801611731565b91505092959194509250565b60006020828403121561185557600080fd5b600061186384828501611731565b91505092915050565b6000806040838503121561187f57600080fd5b600061188d85828601611731565b925050602061189e858286016116dd565b9150509250929050565b600080604083850312156118bb57600080fd5b60006118c985828601611731565b92505060206118da85828601611731565b9150509250929050565b6000806000606084860312156118f957600080fd5b600061190786828701611731565b935050602061191886828701611731565b9250506040611929868287016116dd565b9150509250925092565b600061193f8383611b35565b60608301905092915050565b61195481612003565b82525050565b61196381611fbb565b82525050565b61197281611fbb565b82525050565b600061198382611e8a565b61198d8185611ead565b935061199883611e7a565b8060005b838110156119c95781516119b08882611933565b97506119bb83611ea0565b92505060018101905061199c565b5085935050505092915050565b6119df81611fcd565b82525050565b60006119f082611e95565b6119fa8185611ebe565b9350611a0a818560208601612048565b611a1381612169565b840191505092915050565b6000611a2982611e95565b611a338185611ecf565b9350611a43818560208601612048565b80840191505092915050565b6000611a5c602683611ebe565b91507f4f776e61626c653a206e6577206f776e657220697320746865207a65726f206160008301527f64647265737300000000000000000000000000000000000000000000000000006020830152604082019050919050565b6000611ac2600a83611ebe565b91507f496e76616c6964206964000000000000000000000000000000000000000000006000830152602082019050919050565b6000611b02602083611ebe565b91507f4f776e61626c653a2063616c6c6572206973206e6f7420746865206f776e65726000830152602082019050919050565b606082016000820151611b4b600085018261195a565b506020820151611b5e6020850182611b77565b506040820151611b716040850182611b77565b50505050565b611b8081611ff9565b82525050565b611b8f81611ff9565b82525050565b6000611ba18284611a1e565b915081905092915050565b6000602082019050611bc16000830184611969565b92915050565b6000606082019050611bdc600083018661194b565b611be96020830185611969565b611bf66040830184611b86565b949350505050565b6000604082019050611c13600083018561194b565b611c206020830184611b86565b9392505050565b6000606082019050611c3c6000830186611969565b611c496020830185611b86565b611c566040830184611b86565b949350505050565b6000602082019050611c7360008301846119d6565b92915050565b60006020820190508181036000830152611c9381846119e5565b905092915050565b60006080820190508181036000830152611cb581876119e5565b90508181036020830152611cc981866119e5565b90508181036040830152611cdd8185611978565b90508181036060830152611cf18184611978565b905095945050505050565b60006020820190508181036000830152611d1581611a4f565b9050919050565b60006020820190508181036000830152611d3581611ab5565b9050919050565b60006020820190508181036000830152611d5581611af5565b9050919050565b6000602082019050611d716000830184611b86565b92915050565b600061012082019050611d8d600083018c611b86565b8181036020830152611d9f818b6119e5565b90508181036040830152611db3818a6119e5565b90508181036060830152611dc781896119e5565b9050611dd66080830188611b86565b611de360a0830187611b86565b611df060c0830186611b86565b611dfd60e0830185611b86565b611e0b610100830184611b86565b9a9950505050505050505050565b6000604051905081810181811067ffffffffffffffff82111715611e4057611e3f61213a565b5b8060405250919050565b600067ffffffffffffffff821115611e6557611e6461213a565b5b601f19601f8301169050602081019050919050565b6000819050602082019050919050565b600081519050919050565b600081519050919050565b6000602082019050919050565b600082825260208201905092915050565b600082825260208201905092915050565b600081905092915050565b6000611ee582611ff9565b9150611ef083611ff9565b9250827fffffffffffffffffffffffffffffffffffffffffffffffffffffffffffffffff03821115611f2557611f246120ad565b5b828201905092915050565b6000611f3b82611ff9565b9150611f4683611ff9565b925082611f5657611f556120dc565b5b828204905092915050565b6000611f6c82611ff9565b9150611f7783611ff9565b9250817fffffffffffffffffffffffffffffffffffffffffffffffffffffffffffffffff0483118215151615611fb057611faf6120ad565b5b828202905092915050565b6000611fc682611fd9565b9050919050565b60008115159050919050565b600073ffffffffffffffffffffffffffffffffffffffff82169050919050565b6000819050919050565b600061200e82612015565b9050919050565b600061202082612027565b9050919050565b600061203282611fd9565b9050919050565b82818337600083830152505050565b60005b8381101561206657808201518184015260208101905061204b565b83811115612075576000848401525b50505050565b6000600282049050600182168061209357607f821691505b602082108114156120a7576120a661210b565b5b50919050565b7f4e487b7100000000000000000000000000000000000000000000000000000000600052601160045260246000fd5b7f4e487b7100000000000000000000000000000000000000000000000000000000600052601260045260246000fd5b7f4e487b7100000000000000000000000000000000000000000000000000000000600052602260045260246000fd5b7f4e487b7100000000000000000000000000000000000000000000000000000000600052604160045260246000fd5b6000601f19601f8301169050919050565b61218381611fbb565b811461218e57600080fd5b50565b61219a81611fcd565b81146121a557600080fd5b50565b6121b181611ff9565b81146121bc57600080fd5b5056fea26469706673582212200c16df01bf9e0916b58ffaccdc9580cc8edb88b292d9b4a9fec1bdd384b1b2b364736f6c63430008000033",
  "immutableReferences": {},
  "source": "// SPDX-License-Identifier: MIT\npragma solidity ^0.8.0;\nimport \"@openzeppelin/contracts/token/ERC20/ERC20.sol\";\nimport \"@openzeppelin/contracts/access/Ownable.sol\";\n\ncontract Market is Ownable {\n\n    // Struct for storing each information market\n    struct Information{\n        uint256 id;\n        string title;\n        string description;\n        string resolveUrl;\n        uint256 startTimestamp;\n        uint256 endTimestamp;\n        uint256 totalUpValue;\n        uint256 totalDownValue;\n        uint256 resolved; // 0: not resolved, 1: resolved\n    }\n\n    // Struct for storing amount invested\n    struct Amount {\n        address user;\n        uint256 value;\n        uint256 timestamp;\n    }\n\n    // Address of PreToken\n    address public preToken;\n\n    // Total information market groups created\n    uint256 public totalInformation = 0;\n\n    // Mapping of information market id to information market\n    mapping(uint256 => Information) public informations;\n\n    // Mapping of information market id to upvotes/downvotes\n    mapping(uint256 => Amount[]) public upVotes;\n    mapping(uint256 => Amount[]) public downVotes;\n\n    // Events\n    event InformationAdded(\n        uint256 indexed id,\n        string indexed title,\n        string description\n    );\n\n    // Modifier to check for validity of the id\n    modifier isValidId(uint256 _id) {\n        require(_id != 0 && _id <= totalInformation, \"Invalid id\");\n        _;\n    }\n\n    constructor(address _preToken) {\n        preToken = _preToken;\n    }\n\n    // Function for gas optimization\n    function unsafe_inc(uint256 x) private pure returns (uint256) {\n        unchecked { return x + 1; }\n    }\n\n    // Return the owner\n    function isOwner() public view returns (bool _isOwner) {\n        if (msg.sender == owner()) return true;\n        return false;\n    }\n\n    // Function for creating a new information market\n    function addInformation(\n        string memory _title,\n        string memory _description,\n        string memory _resolveUrl,\n        uint256 _endTimestamp\n    ) public onlyOwner{\n        totalInformation = unsafe_inc(totalInformation);\n\n        informations[totalInformation] = Information({\n            id: totalInformation,\n            title: _title,\n            description: _description,\n            resolveUrl: _resolveUrl,\n            startTimestamp: block.timestamp,\n            endTimestamp: _endTimestamp,\n            totalUpValue: 0,\n            totalDownValue: 0,\n            resolved: 0\n        });\n\n        emit InformationAdded(\n            totalInformation,\n            _title,\n            _description\n        );\n    }\n\n    // Function for voting a information market group\n    function vote(uint256 _id, uint256 _value ,bool _isUpVote) public payable {\n        Information storage information = informations[_id];\n        ERC20(preToken).transferFrom(payable(msg.sender), address(this), _value);\n\n        Amount memory valueCreated = Amount(\n            msg.sender,\n            _value,\n            block.timestamp\n        );\n\n        if (_isUpVote) {\n            information.totalUpValue += _value;\n            upVotes[_id].push(valueCreated);\n        } else {\n            information.totalDownValue += _value;\n            downVotes[_id].push(valueCreated);\n        }\n    }\n\n\n    // Function for getting information market\n    function getInformation(uint256 _id)\n        public\n        view\n        returns (string memory, string memory, Amount[] memory, Amount[] memory)\n    {\n        Information memory information = informations[_id];\n        return (information.title, information.description, upVotes[_id], downVotes[_id]);\n    }\n\n    // Function for distributing the rewards\n    function distribute(uint256 _id, bool isSuccessfull)\n        public\n        payable onlyOwner isValidId(_id)\n    {\n        Information storage information = informations[_id];\n        uint256 totalUpValue = information.totalUpValue;\n        uint256 totalDownValue = information.totalDownValue;\n\n        if (isSuccessfull) {\n            uint256 totalUpvotes = upVotes[_id].length;\n            for (uint256 i = 0; i < totalUpvotes;  i = unsafe_inc(i)) {\n                uint256 investedAmount = upVotes[_id][i].value;\n\n                uint256 extraAmount = (totalDownValue * investedAmount) / totalUpValue;\n\n                ERC20(preToken).transfer(payable(upVotes[_id][i].user), investedAmount + extraAmount);\n            }\n        } else {\n            uint256 totalDownvotes = downVotes[_id].length;\n            for (uint256 i = 0; i < totalDownvotes; i = unsafe_inc(i)) {\n                uint256 investedAmount = downVotes[_id][i].value;\n\n                uint256 extraAmount = (totalUpValue * investedAmount) / totalDownValue;\n\n                ERC20(preToken).transfer(payable(downVotes[_id][i].user), investedAmount + extraAmount);\n            }\n        }\n\n        information.resolved = 1;\n    }\n}\n",
  "sourcePath": "/Users/rahulbansal/Desktop/PreMarket/contracts/Market.sol",
  "compiler": {
    "name": "solc",
    "version": "0.8.0+commit.c7dfd78e.Emscripten.clang"
  },
  "schemaVersion": "3.4.6",
  "updatedAt": "2022-05-29T19:56:36.216Z",
  "networkType": "ethereum",
  "devdoc": {
    "kind": "dev",
    "methods": {
      "owner()": {
        "details": "Returns the address of the current owner."
      },
      "renounceOwnership()": {
        "details": "Leaves the contract without owner. It will not be possible to call `onlyOwner` functions anymore. Can only be called by the current owner. NOTE: Renouncing ownership will leave the contract without an owner, thereby removing any functionality that is only available to the owner."
      },
      "transferOwnership(address)": {
        "details": "Transfers ownership of the contract to a new account (`newOwner`). Can only be called by the current owner."
      }
    },
    "version": 1
  },
  "userdoc": {
    "kind": "user",
    "methods": {},
    "version": 1
  }
}