{
  "contractName": "Market",
  "abi": [
    {
      "inputs": [
        {
          "internalType": "address",
          "name": "_preToken",
          "type": "address"
        }
      ],
      "stateMutability": "nonpayable",
      "type": "constructor"
    },
    {
      "anonymous": false,
      "inputs": [
        {
          "indexed": true,
          "internalType": "uint256",
          "name": "id",
          "type": "uint256"
        },
        {
          "indexed": true,
          "internalType": "string",
          "name": "title",
          "type": "string"
        },
        {
          "indexed": false,
          "internalType": "string",
          "name": "description",
          "type": "string"
        }
      ],
      "name": "InformationAdded",
      "type": "event"
    },
    {
      "anonymous": false,
      "inputs": [
        {
          "indexed": true,
          "internalType": "address",
          "name": "previousOwner",
          "type": "address"
        },
        {
          "indexed": true,
          "internalType": "address",
          "name": "newOwner",
          "type": "address"
        }
      ],
      "name": "OwnershipTransferred",
      "type": "event"
    },
    {
      "inputs": [
        {
          "internalType": "uint256",
          "name": "",
          "type": "uint256"
        },
        {
          "internalType": "uint256",
          "name": "",
          "type": "uint256"
        }
      ],
      "name": "downVotes",
      "outputs": [
        {
          "internalType": "address",
          "name": "user",
          "type": "address"
        },
        {
          "internalType": "uint256",
          "name": "value",
          "type": "uint256"
        },
        {
          "internalType": "uint256",
          "name": "timestamp",
          "type": "uint256"
        }
      ],
      "stateMutability": "view",
      "type": "function"
    },
    {
      "inputs": [
        {
          "internalType": "uint256",
          "name": "",
          "type": "uint256"
        }
      ],
      "name": "informations",
      "outputs": [
        {
          "internalType": "uint256",
          "name": "id",
          "type": "uint256"
        },
        {
          "internalType": "string",
          "name": "title",
          "type": "string"
        },
        {
          "internalType": "string",
          "name": "description",
          "type": "string"
        },
        {
          "internalType": "string",
          "name": "resolveUrl",
          "type": "string"
        },
        {
          "internalType": "uint256",
          "name": "startTimestamp",
          "type": "uint256"
        },
        {
          "internalType": "uint256",
          "name": "endTimestamp",
          "type": "uint256"
        },
        {
          "internalType": "uint256",
          "name": "totalUpValue",
          "type": "uint256"
        },
        {
          "internalType": "uint256",
          "name": "totalDownValue",
          "type": "uint256"
        },
        {
          "internalType": "uint256",
          "name": "isCompleted",
          "type": "uint256"
        }
      ],
      "stateMutability": "view",
      "type": "function"
    },
    {
      "inputs": [],
      "name": "owner",
      "outputs": [
        {
          "internalType": "address",
          "name": "",
          "type": "address"
        }
      ],
      "stateMutability": "view",
      "type": "function"
    },
    {
      "inputs": [],
      "name": "preToken",
      "outputs": [
        {
          "internalType": "address",
          "name": "",
          "type": "address"
        }
      ],
      "stateMutability": "view",
      "type": "function"
    },
    {
      "inputs": [],
      "name": "renounceOwnership",
      "outputs": [],
      "stateMutability": "nonpayable",
      "type": "function"
    },
    {
      "inputs": [],
      "name": "totalInformation",
      "outputs": [
        {
          "internalType": "uint256",
          "name": "",
          "type": "uint256"
        }
      ],
      "stateMutability": "view",
      "type": "function"
    },
    {
      "inputs": [
        {
          "internalType": "address",
          "name": "newOwner",
          "type": "address"
        }
      ],
      "name": "transferOwnership",
      "outputs": [],
      "stateMutability": "nonpayable",
      "type": "function"
    },
    {
      "inputs": [
        {
          "internalType": "uint256",
          "name": "",
          "type": "uint256"
        },
        {
          "internalType": "uint256",
          "name": "",
          "type": "uint256"
        }
      ],
      "name": "upVotes",
      "outputs": [
        {
          "internalType": "address",
          "name": "user",
          "type": "address"
        },
        {
          "internalType": "uint256",
          "name": "value",
          "type": "uint256"
        },
        {
          "internalType": "uint256",
          "name": "timestamp",
          "type": "uint256"
        }
      ],
      "stateMutability": "view",
      "type": "function"
    },
    {
      "inputs": [
        {
          "internalType": "address payable",
          "name": "_address",
          "type": "address"
        },
        {
          "internalType": "uint256",
          "name": "_value",
          "type": "uint256"
        }
      ],
      "name": "giveReward",
      "outputs": [],
      "stateMutability": "payable",
      "type": "function"
    },
    {
      "inputs": [],
      "name": "isOwner",
      "outputs": [
        {
          "internalType": "bool",
          "name": "_isOwner",
          "type": "bool"
        }
      ],
      "stateMutability": "view",
      "type": "function"
    },
    {
      "inputs": [
        {
          "internalType": "string",
          "name": "_title",
          "type": "string"
        },
        {
          "internalType": "string",
          "name": "_description",
          "type": "string"
        },
        {
          "internalType": "string",
          "name": "_resolveUrl",
          "type": "string"
        },
        {
          "internalType": "uint256",
          "name": "_endTimestamp",
          "type": "uint256"
        }
      ],
      "name": "addInformation",
      "outputs": [],
      "stateMutability": "nonpayable",
      "type": "function"
    },
    {
      "inputs": [
        {
          "internalType": "uint256",
          "name": "_id",
          "type": "uint256"
        }
      ],
      "name": "upvote",
      "outputs": [],
      "stateMutability": "payable",
      "type": "function"
    },
    {
      "inputs": [
        {
          "internalType": "uint256",
          "name": "_id",
          "type": "uint256"
        }
      ],
      "name": "downvote",
      "outputs": [],
      "stateMutability": "payable",
      "type": "function"
    },
    {
      "inputs": [
        {
          "internalType": "uint256",
          "name": "_id",
          "type": "uint256"
        }
      ],
      "name": "getInformation",
      "outputs": [
        {
          "internalType": "string",
          "name": "",
          "type": "string"
        },
        {
          "internalType": "string",
          "name": "",
          "type": "string"
        },
        {
          "components": [
            {
              "internalType": "address",
              "name": "user",
              "type": "address"
            },
            {
              "internalType": "uint256",
              "name": "value",
              "type": "uint256"
            },
            {
              "internalType": "uint256",
              "name": "timestamp",
              "type": "uint256"
            }
          ],
          "internalType": "struct Market.Amount[]",
          "name": "",
          "type": "tuple[]"
        },
        {
          "components": [
            {
              "internalType": "address",
              "name": "user",
              "type": "address"
            },
            {
              "internalType": "uint256",
              "name": "value",
              "type": "uint256"
            },
            {
              "internalType": "uint256",
              "name": "timestamp",
              "type": "uint256"
            }
          ],
          "internalType": "struct Market.Amount[]",
          "name": "",
          "type": "tuple[]"
        }
      ],
      "stateMutability": "view",
      "type": "function"
    },
    {
      "inputs": [
        {
          "internalType": "uint256",
          "name": "_id",
          "type": "uint256"
        },
        {
          "internalType": "bool",
          "name": "isSuccessfull",
          "type": "bool"
        }
      ],
      "name": "distribute",
      "outputs": [],
      "stateMutability": "payable",
      "type": "function"
    }
  ],
  "bytecode": "0x608060405260006002553480156200001657600080fd5b5060405162002b8c38038062002b8c83398181016040528101906200003c919062000187565b6200005c62000050620000a460201b60201c565b620000ac60201b60201c565b80600160006101000a81548173ffffffffffffffffffffffffffffffffffffffff021916908373ffffffffffffffffffffffffffffffffffffffff1602179055505062000201565b600033905090565b60008060009054906101000a900473ffffffffffffffffffffffffffffffffffffffff169050816000806101000a81548173ffffffffffffffffffffffffffffffffffffffff021916908373ffffffffffffffffffffffffffffffffffffffff1602179055508173ffffffffffffffffffffffffffffffffffffffff168173ffffffffffffffffffffffffffffffffffffffff167f8be0079c531659141344cd1fd0a4f28419497f9722a3daafe3b4186f6b6457e060405160405180910390a35050565b6000815190506200018181620001e7565b92915050565b6000602082840312156200019a57600080fd5b6000620001aa8482850162000170565b91505092915050565b6000620001c082620001c7565b9050919050565b600073ffffffffffffffffffffffffffffffffffffffff82169050919050565b620001f281620001b3565b8114620001fe57600080fd5b50565b61297b80620002116000396000f3fe6080604052600436106100e85760003560e01c8063715018a61161008a578063ce8ae9f311610059578063ce8ae9f3146102d4578063eaa42568146102f0578063f2fde38b14610330578063f31fdad414610359576100e8565b8063715018a6146102225780638da5cb5b146102395780638f32d59b14610264578063a00806e41461028f576100e8565b8063366b580c116100c6578063366b580c14610164578063379c66e01461018f57806367ece805146101b85780636ffea7bd146101f7576100e8565b806301ddf070146100ed57806323d6ef3e146101095780632fcea6c414610148575b600080fd5b61010760048036038101906101029190611fef565b610375565b005b34801561011557600080fd5b50610130600480360381019061012b9190612054565b61077d565b60405161013f93929190612384565b60405180910390f35b610162600480360381019061015d9190612018565b6107e4565b005b34801561017057600080fd5b50610179610d88565b60405161018691906124b9565b60405180910390f35b34801561019b57600080fd5b506101b660048036038101906101b19190611f44565b610d8e565b005b3480156101c457600080fd5b506101df60048036038101906101da9190612054565b610f62565b6040516101ee93929190612384565b60405180910390f35b34801561020357600080fd5b5061020c610fc9565b6040516102199190612309565b60405180910390f35b34801561022e57600080fd5b50610237610fef565b005b34801561024557600080fd5b5061024e611077565b60405161025b9190612309565b60405180910390f35b34801561027057600080fd5b506102796110a0565b60405161028691906123bb565b60405180910390f35b34801561029b57600080fd5b506102b660048036038101906102b19190611fef565b6110ee565b6040516102cb999897969594939291906124d4565b60405180910390f35b6102ee60048036038101906102e99190611edf565b6112d4565b005b3480156102fc57600080fd5b5061031760048036038101906103129190611fef565b611388565b60405161032794939291906123f8565b60405180910390f35b34801561033c57600080fd5b5061035760048036038101906103529190611eb6565b611769565b005b610373600480360381019061036e9190611fef565b611861565b005b806000811415801561038957506002548111155b6103c8576040517f08c379a00000000000000000000000000000000000000000000000000000000081526004016103bf90612479565b60405180910390fd5b6000600360008481526020019081526020016000206040518061012001604052908160008201548152602001600182018054610403906127ea565b80601f016020809104026020016040519081016040528092919081815260200182805461042f906127ea565b801561047c5780601f106104515761010080835404028352916020019161047c565b820191906000526020600020905b81548152906001019060200180831161045f57829003601f168201915b50505050508152602001600282018054610495906127ea565b80601f01602080910402602001604051908101604052809291908181526020018280546104c1906127ea565b801561050e5780601f106104e35761010080835404028352916020019161050e565b820191906000526020600020905b8154815290600101906020018083116104f157829003601f168201915b50505050508152602001600382018054610527906127ea565b80601f0160208091040260200160405190810160405280929190818152602001828054610553906127ea565b80156105a05780601f10610575576101008083540402835291602001916105a0565b820191906000526020600020905b81548152906001019060200180831161058357829003601f168201915b50505050508152602001600482015481526020016005820154815260200160068201548152602001600782015481526020016008820154815250509050600160009054906101000a900473ffffffffffffffffffffffffffffffffffffffff1673ffffffffffffffffffffffffffffffffffffffff166323b872dd3330346040518463ffffffff1660e01b815260040161063c93929190612324565b602060405180830381600087803b15801561065657600080fd5b505af115801561066a573d6000803e3d6000fd5b505050506040513d601f19601f8201168201806040525081019061068e9190611f1b565b50600060405180606001604052803373ffffffffffffffffffffffffffffffffffffffff168152602001348152602001428152509050348260c0018181516106d69190612637565b915081815250506004600085815260200190815260200160002081908060018154018082558091505060019003906000526020600020906003020160009091909190915060008201518160000160006101000a81548173ffffffffffffffffffffffffffffffffffffffff021916908373ffffffffffffffffffffffffffffffffffffffff1602179055506020820151816001015560408201518160020155505050505050565b6004602052816000526040600020818154811061079957600080fd5b9060005260206000209060030201600091509150508060000160009054906101000a900473ffffffffffffffffffffffffffffffffffffffff16908060010154908060020154905083565b6107ec611c69565b73ffffffffffffffffffffffffffffffffffffffff1661080a611077565b73ffffffffffffffffffffffffffffffffffffffff1614610860576040517f08c379a000000000000000000000000000000000000000000000000000000000815260040161085790612499565b60405180910390fd5b816000811415801561087457506002548111155b6108b3576040517f08c379a00000000000000000000000000000000000000000000000000000000081526004016108aa90612479565b60405180910390fd5b60006003600085815260200190815260200160002060405180610120016040529081600082015481526020016001820180546108ee906127ea565b80601f016020809104026020016040519081016040528092919081815260200182805461091a906127ea565b80156109675780601f1061093c57610100808354040283529160200191610967565b820191906000526020600020905b81548152906001019060200180831161094a57829003601f168201915b50505050508152602001600282018054610980906127ea565b80601f01602080910402602001604051908101604052809291908181526020018280546109ac906127ea565b80156109f95780601f106109ce576101008083540402835291602001916109f9565b820191906000526020600020905b8154815290600101906020018083116109dc57829003601f168201915b50505050508152602001600382018054610a12906127ea565b80601f0160208091040260200160405190810160405280929190818152602001828054610a3e906127ea565b8015610a8b5780601f10610a6057610100808354040283529160200191610a8b565b820191906000526020600020905b815481529060010190602001808311610a6e57829003601f168201915b5050505050815260200160048201548152602001600582015481526020016006820154815260200160078201548152602001600882015481525050905060008160c00151905060008260e0015190508415610c2c5760006004600088815260200190815260200160002080549050905060005b81811015610c25576000600460008a81526020019081526020016000208281548110610b53577f4e487b7100000000000000000000000000000000000000000000000000000000600052603260045260246000fd5b90600052602060002090600302016001015490506000848286610b7691906126be565b610b80919061268d565b9050610c13600460008c81526020019081526020016000208481548110610bd0577f4e487b7100000000000000000000000000000000000000000000000000000000600052603260045260246000fd5b906000526020600020906003020160000160009054906101000a900473ffffffffffffffffffffffffffffffffffffffff168284610c0e9190612637565b6112d4565b5050610c1e81611c71565b9050610afe565b5050610d74565b60006005600088815260200190815260200160002080549050905060005b81811015610d71576000600560008a81526020019081526020016000208281548110610c9f577f4e487b7100000000000000000000000000000000000000000000000000000000600052603260045260246000fd5b90600052602060002090600302016001015490506000848287610cc291906126be565b610ccc919061268d565b9050610d5f600560008c81526020019081526020016000208481548110610d1c577f4e487b7100000000000000000000000000000000000000000000000000000000600052603260045260246000fd5b906000526020600020906003020160000160009054906101000a900473ffffffffffffffffffffffffffffffffffffffff168284610d5a9190612637565b6112d4565b5050610d6a81611c71565b9050610c4a565b50505b600183610100018181525050505050505050565b60025481565b610d96611c69565b73ffffffffffffffffffffffffffffffffffffffff16610db4611077565b73ffffffffffffffffffffffffffffffffffffffff1614610e0a576040517f08c379a0000000000000000000000000000000000000000000000000000000008152600401610e0190612499565b60405180910390fd5b610e15600254611c71565b600281905550604051806101200160405280600254815260200185815260200184815260200183815260200142815260200182815260200160008152602001600081526020016000815250600360006002548152602001908152602001600020600082015181600001556020820151816001019080519060200190610e9b929190611d42565b506040820151816002019080519060200190610eb8929190611d42565b506060820151816003019080519060200190610ed5929190611d42565b506080820151816004015560a0820151816005015560c0820151816006015560e08201518160070155610100820151816008015590505083604051610f1a91906122f2565b60405180910390206002547f46bf6cd255baf7e79d9c9535808e8a3fa2de6588b20a1f887ca96875b20d869885604051610f5491906123d6565b60405180910390a350505050565b60056020528160005260406000208181548110610f7e57600080fd5b9060005260206000209060030201600091509150508060000160009054906101000a900473ffffffffffffffffffffffffffffffffffffffff16908060010154908060020154905083565b600160009054906101000a900473ffffffffffffffffffffffffffffffffffffffff1681565b610ff7611c69565b73ffffffffffffffffffffffffffffffffffffffff16611015611077565b73ffffffffffffffffffffffffffffffffffffffff161461106b576040517f08c379a000000000000000000000000000000000000000000000000000000000815260040161106290612499565b60405180910390fd5b6110756000611c7e565b565b60008060009054906101000a900473ffffffffffffffffffffffffffffffffffffffff16905090565b60006110aa611077565b73ffffffffffffffffffffffffffffffffffffffff163373ffffffffffffffffffffffffffffffffffffffff1614156110e657600190506110eb565b600090505b90565b6003602052806000526040600020600091509050806000015490806001018054611117906127ea565b80601f0160208091040260200160405190810160405280929190818152602001828054611143906127ea565b80156111905780601f1061116557610100808354040283529160200191611190565b820191906000526020600020905b81548152906001019060200180831161117357829003601f168201915b5050505050908060020180546111a5906127ea565b80601f01602080910402602001604051908101604052809291908181526020018280546111d1906127ea565b801561121e5780601f106111f35761010080835404028352916020019161121e565b820191906000526020600020905b81548152906001019060200180831161120157829003601f168201915b505050505090806003018054611233906127ea565b80601f016020809104026020016040519081016040528092919081815260200182805461125f906127ea565b80156112ac5780601f10611281576101008083540402835291602001916112ac565b820191906000526020600020905b81548152906001019060200180831161128f57829003601f168201915b5050505050908060040154908060050154908060060154908060070154908060080154905089565b600160009054906101000a900473ffffffffffffffffffffffffffffffffffffffff1673ffffffffffffffffffffffffffffffffffffffff1663a9059cbb83836040518363ffffffff1660e01b815260040161133192919061235b565b602060405180830381600087803b15801561134b57600080fd5b505af115801561135f573d6000803e3d6000fd5b505050506040513d601f19601f820116820180604052508101906113839190611f1b565b505050565b60608060608060006003600087815260200190815260200160002060405180610120016040529081600082015481526020016001820180546113c9906127ea565b80601f01602080910402602001604051908101604052809291908181526020018280546113f5906127ea565b80156114425780601f1061141757610100808354040283529160200191611442565b820191906000526020600020905b81548152906001019060200180831161142557829003601f168201915b5050505050815260200160028201805461145b906127ea565b80601f0160208091040260200160405190810160405280929190818152602001828054611487906127ea565b80156114d45780601f106114a9576101008083540402835291602001916114d4565b820191906000526020600020905b8154815290600101906020018083116114b757829003601f168201915b505050505081526020016003820180546114ed906127ea565b80601f0160208091040260200160405190810160405280929190818152602001828054611519906127ea565b80156115665780601f1061153b57610100808354040283529160200191611566565b820191906000526020600020905b81548152906001019060200180831161154957829003601f168201915b505050505081526020016004820154815260200160058201548152602001600682015481526020016007820154815260200160088201548152505090508060200151816040015160046000898152602001908152602001600020600560008a815260200190815260200160002081805480602002602001604051908101604052809291908181526020016000905b8282101561169057838290600052602060002090600302016040518060600160405290816000820160009054906101000a900473ffffffffffffffffffffffffffffffffffffffff1673ffffffffffffffffffffffffffffffffffffffff1673ffffffffffffffffffffffffffffffffffffffff16815260200160018201548152602001600282015481525050815260200190600101906115f4565b50505050915080805480602002602001604051908101604052809291908181526020016000905b8282101561175357838290600052602060002090600302016040518060600160405290816000820160009054906101000a900473ffffffffffffffffffffffffffffffffffffffff1673ffffffffffffffffffffffffffffffffffffffff1673ffffffffffffffffffffffffffffffffffffffff16815260200160018201548152602001600282015481525050815260200190600101906116b7565b5050505090509450945094509450509193509193565b611771611c69565b73ffffffffffffffffffffffffffffffffffffffff1661178f611077565b73ffffffffffffffffffffffffffffffffffffffff16146117e5576040517f08c379a00000000000000000000000000000000000000000000000000000000081526004016117dc90612499565b60405180910390fd5b600073ffffffffffffffffffffffffffffffffffffffff168173ffffffffffffffffffffffffffffffffffffffff161415611855576040517f08c379a000000000000000000000000000000000000000000000000000000000815260040161184c90612459565b60405180910390fd5b61185e81611c7e565b50565b806000811415801561187557506002548111155b6118b4576040517f08c379a00000000000000000000000000000000000000000000000000000000081526004016118ab90612479565b60405180910390fd5b60006003600084815260200190815260200160002060405180610120016040529081600082015481526020016001820180546118ef906127ea565b80601f016020809104026020016040519081016040528092919081815260200182805461191b906127ea565b80156119685780601f1061193d57610100808354040283529160200191611968565b820191906000526020600020905b81548152906001019060200180831161194b57829003601f168201915b50505050508152602001600282018054611981906127ea565b80601f01602080910402602001604051908101604052809291908181526020018280546119ad906127ea565b80156119fa5780601f106119cf576101008083540402835291602001916119fa565b820191906000526020600020905b8154815290600101906020018083116119dd57829003601f168201915b50505050508152602001600382018054611a13906127ea565b80601f0160208091040260200160405190810160405280929190818152602001828054611a3f906127ea565b8015611a8c5780601f10611a6157610100808354040283529160200191611a8c565b820191906000526020600020905b815481529060010190602001808311611a6f57829003601f168201915b50505050508152602001600482015481526020016005820154815260200160068201548152602001600782015481526020016008820154815250509050600160009054906101000a900473ffffffffffffffffffffffffffffffffffffffff1673ffffffffffffffffffffffffffffffffffffffff166323b872dd3330346040518463ffffffff1660e01b8152600401611b2893929190612324565b602060405180830381600087803b158015611b4257600080fd5b505af1158015611b56573d6000803e3d6000fd5b505050506040513d601f19601f82011682018060405250810190611b7a9190611f1b565b50600060405180606001604052803373ffffffffffffffffffffffffffffffffffffffff168152602001348152602001428152509050348260e001818151611bc29190612637565b915081815250506005600085815260200190815260200160002081908060018154018082558091505060019003906000526020600020906003020160009091909190915060008201518160000160006101000a81548173ffffffffffffffffffffffffffffffffffffffff021916908373ffffffffffffffffffffffffffffffffffffffff1602179055506020820151816001015560408201518160020155505050505050565b600033905090565b6000600182019050919050565b60008060009054906101000a900473ffffffffffffffffffffffffffffffffffffffff169050816000806101000a81548173ffffffffffffffffffffffffffffffffffffffff021916908373ffffffffffffffffffffffffffffffffffffffff1602179055508173ffffffffffffffffffffffffffffffffffffffff168173ffffffffffffffffffffffffffffffffffffffff167f8be0079c531659141344cd1fd0a4f28419497f9722a3daafe3b4186f6b6457e060405160405180910390a35050565b828054611d4e906127ea565b90600052602060002090601f016020900481019282611d705760008555611db7565b82601f10611d8957805160ff1916838001178555611db7565b82800160010185558215611db7579182015b82811115611db6578251825591602001919060010190611d9b565b5b509050611dc49190611dc8565b5090565b5b80821115611de1576000816000905550600101611dc9565b5090565b6000611df8611df3846125a7565b612576565b905082815260208101848484011115611e1057600080fd5b611e1b8482856127a8565b509392505050565b600081359050611e32816128e9565b92915050565b600081359050611e4781612900565b92915050565b600081359050611e5c81612917565b92915050565b600081519050611e7181612917565b92915050565b600082601f830112611e8857600080fd5b8135611e98848260208601611de5565b91505092915050565b600081359050611eb08161292e565b92915050565b600060208284031215611ec857600080fd5b6000611ed684828501611e23565b91505092915050565b60008060408385031215611ef257600080fd5b6000611f0085828601611e38565b9250506020611f1185828601611ea1565b9150509250929050565b600060208284031215611f2d57600080fd5b6000611f3b84828501611e62565b91505092915050565b60008060008060808587031215611f5a57600080fd5b600085013567ffffffffffffffff811115611f7457600080fd5b611f8087828801611e77565b945050602085013567ffffffffffffffff811115611f9d57600080fd5b611fa987828801611e77565b935050604085013567ffffffffffffffff811115611fc657600080fd5b611fd287828801611e77565b9250506060611fe387828801611ea1565b91505092959194509250565b60006020828403121561200157600080fd5b600061200f84828501611ea1565b91505092915050565b6000806040838503121561202b57600080fd5b600061203985828601611ea1565b925050602061204a85828601611e4d565b9150509250929050565b6000806040838503121561206757600080fd5b600061207585828601611ea1565b925050602061208685828601611ea1565b9150509250929050565b600061209c8383612292565b60608301905092915050565b6120b181612772565b82525050565b6120c081612718565b82525050565b6120cf81612718565b82525050565b60006120e0826125e7565b6120ea818561260a565b93506120f5836125d7565b8060005b8381101561212657815161210d8882612090565b9750612118836125fd565b9250506001810190506120f9565b5085935050505092915050565b61213c8161273c565b82525050565b600061214d826125f2565b612157818561261b565b93506121678185602086016127b7565b612170816128d8565b840191505092915050565b6000612186826125f2565b612190818561262c565b93506121a08185602086016127b7565b80840191505092915050565b60006121b960268361261b565b91507f4f776e61626c653a206e6577206f776e657220697320746865207a65726f206160008301527f64647265737300000000000000000000000000000000000000000000000000006020830152604082019050919050565b600061221f600a8361261b565b91507f496e76616c6964206964000000000000000000000000000000000000000000006000830152602082019050919050565b600061225f60208361261b565b91507f4f776e61626c653a2063616c6c6572206973206e6f7420746865206f776e65726000830152602082019050919050565b6060820160008201516122a860008501826120b7565b5060208201516122bb60208501826122d4565b5060408201516122ce60408501826122d4565b50505050565b6122dd81612768565b82525050565b6122ec81612768565b82525050565b60006122fe828461217b565b915081905092915050565b600060208201905061231e60008301846120c6565b92915050565b600060608201905061233960008301866120a8565b61234660208301856120c6565b61235360408301846122e3565b949350505050565b600060408201905061237060008301856120a8565b61237d60208301846122e3565b9392505050565b600060608201905061239960008301866120c6565b6123a660208301856122e3565b6123b360408301846122e3565b949350505050565b60006020820190506123d06000830184612133565b92915050565b600060208201905081810360008301526123f08184612142565b905092915050565b600060808201905081810360008301526124128187612142565b905081810360208301526124268186612142565b9050818103604083015261243a81856120d5565b9050818103606083015261244e81846120d5565b905095945050505050565b60006020820190508181036000830152612472816121ac565b9050919050565b6000602082019050818103600083015261249281612212565b9050919050565b600060208201905081810360008301526124b281612252565b9050919050565b60006020820190506124ce60008301846122e3565b92915050565b6000610120820190506124ea600083018c6122e3565b81810360208301526124fc818b612142565b90508181036040830152612510818a612142565b905081810360608301526125248189612142565b905061253360808301886122e3565b61254060a08301876122e3565b61254d60c08301866122e3565b61255a60e08301856122e3565b6125686101008301846122e3565b9a9950505050505050505050565b6000604051905081810181811067ffffffffffffffff8211171561259d5761259c6128a9565b5b8060405250919050565b600067ffffffffffffffff8211156125c2576125c16128a9565b5b601f19601f8301169050602081019050919050565b6000819050602082019050919050565b600081519050919050565b600081519050919050565b6000602082019050919050565b600082825260208201905092915050565b600082825260208201905092915050565b600081905092915050565b600061264282612768565b915061264d83612768565b9250827fffffffffffffffffffffffffffffffffffffffffffffffffffffffffffffffff038211156126825761268161281c565b5b828201905092915050565b600061269882612768565b91506126a383612768565b9250826126b3576126b261284b565b5b828204905092915050565b60006126c982612768565b91506126d483612768565b9250817fffffffffffffffffffffffffffffffffffffffffffffffffffffffffffffffff048311821515161561270d5761270c61281c565b5b828202905092915050565b600061272382612748565b9050919050565b600061273582612748565b9050919050565b60008115159050919050565b600073ffffffffffffffffffffffffffffffffffffffff82169050919050565b6000819050919050565b600061277d82612784565b9050919050565b600061278f82612796565b9050919050565b60006127a182612748565b9050919050565b82818337600083830152505050565b60005b838110156127d55780820151818401526020810190506127ba565b838111156127e4576000848401525b50505050565b6000600282049050600182168061280257607f821691505b602082108114156128165761281561287a565b5b50919050565b7f4e487b7100000000000000000000000000000000000000000000000000000000600052601160045260246000fd5b7f4e487b7100000000000000000000000000000000000000000000000000000000600052601260045260246000fd5b7f4e487b7100000000000000000000000000000000000000000000000000000000600052602260045260246000fd5b7f4e487b7100000000000000000000000000000000000000000000000000000000600052604160045260246000fd5b6000601f19601f8301169050919050565b6128f281612718565b81146128fd57600080fd5b50565b6129098161272a565b811461291457600080fd5b50565b6129208161273c565b811461292b57600080fd5b50565b61293781612768565b811461294257600080fd5b5056fea2646970667358221220e82ac641100d14ab66ab8cd5201d781fb74f327656e8c0c05496cd3891b2f26664736f6c63430008000033",
  "immutableReferences": {},
  "source": "// SPDX-License-Identifier: MIT\npragma solidity ^0.8.0;\nimport \"@openzeppelin/contracts/token/ERC20/ERC20.sol\";\nimport \"@openzeppelin/contracts/access/Ownable.sol\";\n\ncontract Market is Ownable {\n\n    // Struct for storing each information market\n    struct Information{\n        uint256 id;\n        string title;\n        string description;\n        string resolveUrl;\n        uint256 startTimestamp;\n        uint256 endTimestamp;\n        uint256 totalUpValue;\n        uint256 totalDownValue;\n        uint256 isCompleted; // 0 - not completed, 1 - completed, Since boolean are more expensive than uint256\n    }\n\n    // Struct for storing amount invested\n    struct Amount {\n        address user;\n        uint256 value;\n        uint256 timestamp;\n    }\n\n    // Address of PreToken\n    address public preToken;\n\n    // Total information market groups created\n    uint256 public totalInformation = 0;\n\n    // Mapping of information market id to information market\n    mapping(uint256 => Information) public informations;\n\n    // Mapping of information market id to upvotes/downvotes\n    mapping(uint256 => Amount[]) public upVotes;\n    mapping(uint256 => Amount[]) public downVotes;\n\n    // Events\n    event InformationAdded(\n        uint256 indexed id,\n        string indexed title,\n        string description\n    );\n\n    // Modifier to check for validity of the id\n    modifier isValidId(uint256 _id) {\n        require(_id != 0 && _id <= totalInformation, \"Invalid id\");\n        _;\n    }\n\n    constructor(address _preToken) {\n        preToken = _preToken;\n    }\n\n    // Function for gas optimization\n    function unsafe_inc(uint256 x) private pure returns (uint256) {\n        unchecked { return x + 1; }\n    }\n\n    // Giving rewards to the user\n    function giveReward(address payable _address, uint256 _value) public payable {\n        ERC20(preToken).transfer(payable(_address), _value);\n    }\n\n    // Return the owner\n    function isOwner() public view returns (bool _isOwner) {\n        if (msg.sender == owner()) return true;\n        return false;\n    }\n\n    // Function for creating a new information market\n    function addInformation(\n        string memory _title,\n        string memory _description,\n        string memory _resolveUrl,\n        uint256 _endTimestamp\n    ) public onlyOwner{\n        totalInformation = unsafe_inc(totalInformation);\n\n        informations[totalInformation] = Information({\n            id: totalInformation,\n            title: _title,\n            description: _description,\n            resolveUrl: _resolveUrl,\n            startTimestamp: block.timestamp,\n            endTimestamp: _endTimestamp,\n            totalUpValue: 0,\n            totalDownValue: 0,\n            isCompleted: 0\n        });\n\n        emit InformationAdded(\n            totalInformation,\n            _title,\n            _description\n        );\n    }\n\n    // Function for upvoting a information market group\n    function upvote(uint256 _id) isValidId(_id) public payable {\n        Information memory information = informations[_id];\n        ERC20(preToken).transferFrom(payable(msg.sender), address(this), msg.value);\n\n        Amount memory valueCreated = Amount(\n            msg.sender,\n            msg.value,\n            block.timestamp\n        );\n\n        information.totalUpValue += msg.value;\n        upVotes[_id].push(valueCreated);\n    }\n\n    // Function for downvoting a information market group\n    function downvote(uint256 _id) isValidId(_id) public payable {\n        Information memory information = informations[_id];\n\n        ERC20(preToken).transferFrom(payable(msg.sender), address(this), msg.value);\n\n        Amount memory valueCreated = Amount(\n            msg.sender,\n            msg.value,\n            block.timestamp\n        );\n\n        information.totalDownValue += msg.value;\n        downVotes[_id].push(valueCreated);\n    }\n\n    // Function for getting information market\n    function getInformation(uint256 _id)\n        public\n        view\n        returns (string memory, string memory, Amount[] memory, Amount[] memory)\n    {\n        Information memory information = informations[_id];\n        return (information.title, information.description, upVotes[_id], downVotes[_id]);\n    }\n\n    // Function for distributing the rewards\n    function distribute(uint256 _id, bool isSuccessfull)\n        public\n        payable onlyOwner isValidId(_id)\n    {\n        Information memory information = informations[_id];\n        uint256 totalUpValue = information.totalUpValue;\n        uint256 totalDownValue = information.totalDownValue;\n\n        if (isSuccessfull) {\n            uint256 totalUpvotes = upVotes[_id].length;\n            for (uint256 i = 0; i < totalUpvotes;  i = unsafe_inc(i)) {\n                uint256 investedAmount = upVotes[_id][i].value;\n\n                uint256 extraAmount = (totalDownValue * investedAmount) / totalDownValue;\n\n                giveReward(payable(upVotes[_id][i].user), investedAmount + extraAmount);\n            }\n        } else {\n            uint256 totalDownvotes = downVotes[_id].length;\n            for (uint256 i = 0; i < totalDownvotes; i = unsafe_inc(i)) {\n                uint256 investedAmount = downVotes[_id][i].value;\n\n                uint256 extraAmount = (totalUpValue * investedAmount) / totalDownValue;\n\n                giveReward(payable(downVotes[_id][i].user), investedAmount + extraAmount);\n            }\n        }\n        information.isCompleted = 1;\n    }\n}\n",
  "sourcePath": "/Users/rahulbansal/Desktop/PreMarket/contracts/Market.sol",
  "compiler": {
    "name": "solc",
    "version": "0.8.0+commit.c7dfd78e.Emscripten.clang"
  },
  "schemaVersion": "3.4.6",
  "updatedAt": "2022-05-27T18:08:55.336Z",
  "devdoc": {
    "kind": "dev",
    "methods": {
      "owner()": {
        "details": "Returns the address of the current owner."
      },
      "renounceOwnership()": {
        "details": "Leaves the contract without owner. It will not be possible to call `onlyOwner` functions anymore. Can only be called by the current owner. NOTE: Renouncing ownership will leave the contract without an owner, thereby removing any functionality that is only available to the owner."
      },
      "transferOwnership(address)": {
        "details": "Transfers ownership of the contract to a new account (`newOwner`). Can only be called by the current owner."
      }
    },
    "version": 1
  },
  "userdoc": {
    "kind": "user",
    "methods": {},
    "version": 1
  }
}