{
  "contractName": "Token",
  "abi": [
    {
      "inputs": [],
      "stateMutability": "nonpayable",
      "type": "constructor"
    },
    {
      "anonymous": false,
      "inputs": [
        {
          "indexed": true,
          "internalType": "address",
          "name": "owner",
          "type": "address"
        },
        {
          "indexed": true,
          "internalType": "address",
          "name": "spender",
          "type": "address"
        },
        {
          "indexed": false,
          "internalType": "uint256",
          "name": "value",
          "type": "uint256"
        }
      ],
      "name": "Approval",
      "type": "event"
    },
    {
      "anonymous": false,
      "inputs": [
        {
          "indexed": true,
          "internalType": "address",
          "name": "previousOwner",
          "type": "address"
        },
        {
          "indexed": true,
          "internalType": "address",
          "name": "newOwner",
          "type": "address"
        }
      ],
      "name": "OwnershipTransferred",
      "type": "event"
    },
    {
      "anonymous": false,
      "inputs": [
        {
          "indexed": true,
          "internalType": "address",
          "name": "from",
          "type": "address"
        },
        {
          "indexed": true,
          "internalType": "address",
          "name": "to",
          "type": "address"
        },
        {
          "indexed": false,
          "internalType": "uint256",
          "name": "value",
          "type": "uint256"
        }
      ],
      "name": "Transfer",
      "type": "event"
    },
    {
      "inputs": [
        {
          "internalType": "address",
          "name": "owner",
          "type": "address"
        },
        {
          "internalType": "address",
          "name": "spender",
          "type": "address"
        }
      ],
      "name": "allowance",
      "outputs": [
        {
          "internalType": "uint256",
          "name": "",
          "type": "uint256"
        }
      ],
      "stateMutability": "view",
      "type": "function",
      "constant": true
    },
    {
      "inputs": [
        {
          "internalType": "address",
          "name": "spender",
          "type": "address"
        },
        {
          "internalType": "uint256",
          "name": "amount",
          "type": "uint256"
        }
      ],
      "name": "approve",
      "outputs": [
        {
          "internalType": "bool",
          "name": "",
          "type": "bool"
        }
      ],
      "stateMutability": "nonpayable",
      "type": "function"
    },
    {
      "inputs": [
        {
          "internalType": "address",
          "name": "account",
          "type": "address"
        }
      ],
      "name": "balanceOf",
      "outputs": [
        {
          "internalType": "uint256",
          "name": "",
          "type": "uint256"
        }
      ],
      "stateMutability": "view",
      "type": "function",
      "constant": true
    },
    {
      "inputs": [],
      "name": "decimals",
      "outputs": [
        {
          "internalType": "uint8",
          "name": "",
          "type": "uint8"
        }
      ],
      "stateMutability": "view",
      "type": "function",
      "constant": true
    },
    {
      "inputs": [
        {
          "internalType": "address",
          "name": "spender",
          "type": "address"
        },
        {
          "internalType": "uint256",
          "name": "subtractedValue",
          "type": "uint256"
        }
      ],
      "name": "decreaseAllowance",
      "outputs": [
        {
          "internalType": "bool",
          "name": "",
          "type": "bool"
        }
      ],
      "stateMutability": "nonpayable",
      "type": "function"
    },
    {
      "inputs": [
        {
          "internalType": "address",
          "name": "spender",
          "type": "address"
        },
        {
          "internalType": "uint256",
          "name": "addedValue",
          "type": "uint256"
        }
      ],
      "name": "increaseAllowance",
      "outputs": [
        {
          "internalType": "bool",
          "name": "",
          "type": "bool"
        }
      ],
      "stateMutability": "nonpayable",
      "type": "function"
    },
    {
      "inputs": [],
      "name": "name",
      "outputs": [
        {
          "internalType": "string",
          "name": "",
          "type": "string"
        }
      ],
      "stateMutability": "view",
      "type": "function",
      "constant": true
    },
    {
      "inputs": [],
      "name": "owner",
      "outputs": [
        {
          "internalType": "address",
          "name": "",
          "type": "address"
        }
      ],
      "stateMutability": "view",
      "type": "function",
      "constant": true
    },
    {
      "inputs": [],
      "name": "renounceOwnership",
      "outputs": [],
      "stateMutability": "nonpayable",
      "type": "function"
    },
    {
      "inputs": [],
      "name": "symbol",
      "outputs": [
        {
          "internalType": "string",
          "name": "",
          "type": "string"
        }
      ],
      "stateMutability": "view",
      "type": "function",
      "constant": true
    },
    {
      "inputs": [],
      "name": "totalSupply",
      "outputs": [
        {
          "internalType": "uint256",
          "name": "",
          "type": "uint256"
        }
      ],
      "stateMutability": "view",
      "type": "function",
      "constant": true
    },
    {
      "inputs": [
        {
          "internalType": "address",
          "name": "to",
          "type": "address"
        },
        {
          "internalType": "uint256",
          "name": "amount",
          "type": "uint256"
        }
      ],
      "name": "transfer",
      "outputs": [
        {
          "internalType": "bool",
          "name": "",
          "type": "bool"
        }
      ],
      "stateMutability": "nonpayable",
      "type": "function"
    },
    {
      "inputs": [
        {
          "internalType": "address",
          "name": "from",
          "type": "address"
        },
        {
          "internalType": "address",
          "name": "to",
          "type": "address"
        },
        {
          "internalType": "uint256",
          "name": "amount",
          "type": "uint256"
        }
      ],
      "name": "transferFrom",
      "outputs": [
        {
          "internalType": "bool",
          "name": "",
          "type": "bool"
        }
      ],
      "stateMutability": "nonpayable",
      "type": "function"
    },
    {
      "inputs": [
        {
          "internalType": "address",
          "name": "newOwner",
          "type": "address"
        }
      ],
      "name": "transferOwnership",
      "outputs": [],
      "stateMutability": "nonpayable",
      "type": "function"
    },
    {
      "inputs": [
        {
          "internalType": "address",
          "name": "to",
          "type": "address"
        },
        {
          "internalType": "uint256",
          "name": "amount",
          "type": "uint256"
        }
      ],
      "name": "mint",
      "outputs": [],
      "stateMutability": "nonpayable",
      "type": "function"
    },
    {
      "inputs": [],
      "name": "giveTestTokens",
      "outputs": [],
      "stateMutability": "payable",
      "type": "function",
      "payable": true
    }
  ],
  "bytecode": "0x60806040523480156200001157600080fd5b506040518060400160405280600881526020017f507265546f6b656e0000000000000000000000000000000000000000000000008152506040518060400160405280600381526020017f505245000000000000000000000000000000000000000000000000000000000081525081600390805190602001906200009692919062000346565b508060049080519060200190620000af92919062000346565b505050620000d2620000c6620000f560201b60201c565b620000fd60201b60201c565b620000ef306a084595161401484a000000620001c360201b60201c565b62000594565b600033905090565b6000600560009054906101000a900473ffffffffffffffffffffffffffffffffffffffff16905081600560006101000a81548173ffffffffffffffffffffffffffffffffffffffff021916908373ffffffffffffffffffffffffffffffffffffffff1602179055508173ffffffffffffffffffffffffffffffffffffffff168173ffffffffffffffffffffffffffffffffffffffff167f8be0079c531659141344cd1fd0a4f28419497f9722a3daafe3b4186f6b6457e060405160405180910390a35050565b600073ffffffffffffffffffffffffffffffffffffffff168273ffffffffffffffffffffffffffffffffffffffff16141562000236576040517f08c379a00000000000000000000000000000000000000000000000000000000081526004016200022d9062000449565b60405180910390fd5b6200024a600083836200033c60201b60201c565b80600260008282546200025e919062000499565b92505081905550806000808473ffffffffffffffffffffffffffffffffffffffff1673ffffffffffffffffffffffffffffffffffffffff1681526020019081526020016000206000828254620002b5919062000499565b925050819055508173ffffffffffffffffffffffffffffffffffffffff16600073ffffffffffffffffffffffffffffffffffffffff167fddf252ad1be2c89b69c2b068fc378daa952ba7f163c4a11628f55a4df523b3ef836040516200031c91906200046b565b60405180910390a362000338600083836200034160201b60201c565b5050565b505050565b505050565b828054620003549062000500565b90600052602060002090601f016020900481019282620003785760008555620003c4565b82601f106200039357805160ff1916838001178555620003c4565b82800160010185558215620003c4579182015b82811115620003c3578251825591602001919060010190620003a6565b5b509050620003d39190620003d7565b5090565b5b80821115620003f2576000816000905550600101620003d8565b5090565b600062000405601f8362000488565b91507f45524332303a206d696e7420746f20746865207a65726f2061646472657373006000830152602082019050919050565b6200044381620004f6565b82525050565b600060208201905081810360008301526200046481620003f6565b9050919050565b600060208201905062000482600083018462000438565b92915050565b600082825260208201905092915050565b6000620004a682620004f6565b9150620004b383620004f6565b9250827fffffffffffffffffffffffffffffffffffffffffffffffffffffffffffffffff03821115620004eb57620004ea62000536565b5b828201905092915050565b6000819050919050565b600060028204905060018216806200051957607f821691505b6020821081141562000530576200052f62000565565b5b50919050565b7f4e487b7100000000000000000000000000000000000000000000000000000000600052601160045260246000fd5b7f4e487b7100000000000000000000000000000000000000000000000000000000600052602260045260246000fd5b611ae880620005a46000396000f3fe6080604052600436106100f35760003560e01c806370a082311161008a578063a457c2d711610059578063a457c2d71461030d578063a9059cbb1461034a578063dd62ed3e14610387578063f2fde38b146103c4576100f3565b806370a0823114610263578063715018a6146102a05780638da5cb5b146102b757806395d89b41146102e2576100f3565b8063313ce567116100c6578063313ce567146101c857806339509351146101f357806340c10f191461023057806358457d8014610259576100f3565b806306fdde03146100f8578063095ea7b31461012357806318160ddd1461016057806323b872dd1461018b575b600080fd5b34801561010457600080fd5b5061010d6103ed565b60405161011a9190611711565b60405180910390f35b34801561012f57600080fd5b5061014a600480360381019061014591906111fa565b61047f565b60405161015791906116f6565b60405180910390f35b34801561016c57600080fd5b506101756104a2565b60405161018291906118b3565b60405180910390f35b34801561019757600080fd5b506101b260048036038101906101ad91906111ab565b6104ac565b6040516101bf91906116f6565b60405180910390f35b3480156101d457600080fd5b506101dd6104db565b6040516101ea91906118ce565b60405180910390f35b3480156101ff57600080fd5b5061021a600480360381019061021591906111fa565b6104e4565b60405161022791906116f6565b60405180910390f35b34801561023c57600080fd5b50610257600480360381019061025291906111fa565b61051b565b005b6102616105a5565b005b34801561026f57600080fd5b5061028a60048036038101906102859190611146565b610667565b60405161029791906118b3565b60405180910390f35b3480156102ac57600080fd5b506102b56106af565b005b3480156102c357600080fd5b506102cc610737565b6040516102d991906116db565b60405180910390f35b3480156102ee57600080fd5b506102f7610761565b6040516103049190611711565b60405180910390f35b34801561031957600080fd5b50610334600480360381019061032f91906111fa565b6107f3565b60405161034191906116f6565b60405180910390f35b34801561035657600080fd5b50610371600480360381019061036c91906111fa565b61086a565b60405161037e91906116f6565b60405180910390f35b34801561039357600080fd5b506103ae60048036038101906103a9919061116f565b61088d565b6040516103bb91906118b3565b60405180910390f35b3480156103d057600080fd5b506103eb60048036038101906103e69190611146565b610914565b005b6060600380546103fc906119e3565b80601f0160208091040260200160405190810160405280929190818152602001828054610428906119e3565b80156104755780601f1061044a57610100808354040283529160200191610475565b820191906000526020600020905b81548152906001019060200180831161045857829003601f168201915b5050505050905090565b60008061048a610a0c565b9050610497818585610a14565b600191505092915050565b6000600254905090565b6000806104b7610a0c565b90506104c4858285610bdf565b6104cf858585610c6b565b60019150509392505050565b60006012905090565b6000806104ef610a0c565b9050610510818585610501858961088d565b61050b9190611905565b610a14565b600191505092915050565b610523610a0c565b73ffffffffffffffffffffffffffffffffffffffff16610541610737565b73ffffffffffffffffffffffffffffffffffffffff1614610597576040517f08c379a000000000000000000000000000000000000000000000000000000000815260040161058e906117f3565b60405180910390fd5b6105a18282610eec565b5050565b674563918244f400006105b733610667565b11156105f8576040517f08c379a00000000000000000000000000000000000000000000000000000000081526004016105ef90611753565b60405180910390fd5b600061060330610667565b9050683635c9adc5dea00000811015610651576040517f08c379a000000000000000000000000000000000000000000000000000000000815260040161064890611853565b60405180910390fd5b6106643033674563918244f40000610c6b565b50565b60008060008373ffffffffffffffffffffffffffffffffffffffff1673ffffffffffffffffffffffffffffffffffffffff168152602001908152602001600020549050919050565b6106b7610a0c565b73ffffffffffffffffffffffffffffffffffffffff166106d5610737565b73ffffffffffffffffffffffffffffffffffffffff161461072b576040517f08c379a0000000000000000000000000000000000000000000000000000000008152600401610722906117f3565b60405180910390fd5b610735600061104c565b565b6000600560009054906101000a900473ffffffffffffffffffffffffffffffffffffffff16905090565b606060048054610770906119e3565b80601f016020809104026020016040519081016040528092919081815260200182805461079c906119e3565b80156107e95780601f106107be576101008083540402835291602001916107e9565b820191906000526020600020905b8154815290600101906020018083116107cc57829003601f168201915b5050505050905090565b6000806107fe610a0c565b9050600061080c828661088d565b905083811015610851576040517f08c379a000000000000000000000000000000000000000000000000000000000815260040161084890611873565b60405180910390fd5b61085e8286868403610a14565b60019250505092915050565b600080610875610a0c565b9050610882818585610c6b565b600191505092915050565b6000600160008473ffffffffffffffffffffffffffffffffffffffff1673ffffffffffffffffffffffffffffffffffffffff16815260200190815260200160002060008373ffffffffffffffffffffffffffffffffffffffff1673ffffffffffffffffffffffffffffffffffffffff16815260200190815260200160002054905092915050565b61091c610a0c565b73ffffffffffffffffffffffffffffffffffffffff1661093a610737565b73ffffffffffffffffffffffffffffffffffffffff1614610990576040517f08c379a0000000000000000000000000000000000000000000000000000000008152600401610987906117f3565b60405180910390fd5b600073ffffffffffffffffffffffffffffffffffffffff168173ffffffffffffffffffffffffffffffffffffffff161415610a00576040517f08c379a00000000000000000000000000000000000000000000000000000000081526004016109f790611773565b60405180910390fd5b610a098161104c565b50565b600033905090565b600073ffffffffffffffffffffffffffffffffffffffff168373ffffffffffffffffffffffffffffffffffffffff161415610a84576040517f08c379a0000000000000000000000000000000000000000000000000000000008152600401610a7b90611833565b60405180910390fd5b600073ffffffffffffffffffffffffffffffffffffffff168273ffffffffffffffffffffffffffffffffffffffff161415610af4576040517f08c379a0000000000000000000000000000000000000000000000000000000008152600401610aeb90611793565b60405180910390fd5b80600160008573ffffffffffffffffffffffffffffffffffffffff1673ffffffffffffffffffffffffffffffffffffffff16815260200190815260200160002060008473ffffffffffffffffffffffffffffffffffffffff1673ffffffffffffffffffffffffffffffffffffffff168152602001908152602001600020819055508173ffffffffffffffffffffffffffffffffffffffff168373ffffffffffffffffffffffffffffffffffffffff167f8c5be1e5ebec7d5bd14f71427d1e84f3dd0314c0f7b2291e5b200ac8c7c3b92583604051610bd291906118b3565b60405180910390a3505050565b6000610beb848461088d565b90507fffffffffffffffffffffffffffffffffffffffffffffffffffffffffffffffff8114610c655781811015610c57576040517f08c379a0000000000000000000000000000000000000000000000000000000008152600401610c4e906117b3565b60405180910390fd5b610c648484848403610a14565b5b50505050565b600073ffffffffffffffffffffffffffffffffffffffff168373ffffffffffffffffffffffffffffffffffffffff161415610cdb576040517f08c379a0000000000000000000000000000000000000000000000000000000008152600401610cd290611813565b60405180910390fd5b600073ffffffffffffffffffffffffffffffffffffffff168273ffffffffffffffffffffffffffffffffffffffff161415610d4b576040517f08c379a0000000000000000000000000000000000000000000000000000000008152600401610d4290611733565b60405180910390fd5b610d56838383611112565b60008060008573ffffffffffffffffffffffffffffffffffffffff1673ffffffffffffffffffffffffffffffffffffffff16815260200190815260200160002054905081811015610ddc576040517f08c379a0000000000000000000000000000000000000000000000000000000008152600401610dd3906117d3565b60405180910390fd5b8181036000808673ffffffffffffffffffffffffffffffffffffffff1673ffffffffffffffffffffffffffffffffffffffff16815260200190815260200160002081905550816000808573ffffffffffffffffffffffffffffffffffffffff1673ffffffffffffffffffffffffffffffffffffffff1681526020019081526020016000206000828254610e6f9190611905565b925050819055508273ffffffffffffffffffffffffffffffffffffffff168473ffffffffffffffffffffffffffffffffffffffff167fddf252ad1be2c89b69c2b068fc378daa952ba7f163c4a11628f55a4df523b3ef84604051610ed391906118b3565b60405180910390a3610ee6848484611117565b50505050565b600073ffffffffffffffffffffffffffffffffffffffff168273ffffffffffffffffffffffffffffffffffffffff161415610f5c576040517f08c379a0000000000000000000000000000000000000000000000000000000008152600401610f5390611893565b60405180910390fd5b610f6860008383611112565b8060026000828254610f7a9190611905565b92505081905550806000808473ffffffffffffffffffffffffffffffffffffffff1673ffffffffffffffffffffffffffffffffffffffff1681526020019081526020016000206000828254610fcf9190611905565b925050819055508173ffffffffffffffffffffffffffffffffffffffff16600073ffffffffffffffffffffffffffffffffffffffff167fddf252ad1be2c89b69c2b068fc378daa952ba7f163c4a11628f55a4df523b3ef8360405161103491906118b3565b60405180910390a361104860008383611117565b5050565b6000600560009054906101000a900473ffffffffffffffffffffffffffffffffffffffff16905081600560006101000a81548173ffffffffffffffffffffffffffffffffffffffff021916908373ffffffffffffffffffffffffffffffffffffffff1602179055508173ffffffffffffffffffffffffffffffffffffffff168173ffffffffffffffffffffffffffffffffffffffff167f8be0079c531659141344cd1fd0a4f28419497f9722a3daafe3b4186f6b6457e060405160405180910390a35050565b505050565b505050565b60008135905061112b81611a84565b92915050565b60008135905061114081611a9b565b92915050565b60006020828403121561115857600080fd5b60006111668482850161111c565b91505092915050565b6000806040838503121561118257600080fd5b60006111908582860161111c565b92505060206111a18582860161111c565b9150509250929050565b6000806000606084860312156111c057600080fd5b60006111ce8682870161111c565b93505060206111df8682870161111c565b92505060406111f086828701611131565b9150509250925092565b6000806040838503121561120d57600080fd5b600061121b8582860161111c565b925050602061122c85828601611131565b9150509250929050565b61123f8161195b565b82525050565b61124e8161196d565b82525050565b600061125f826118e9565b61126981856118f4565b93506112798185602086016119b0565b61128281611a73565b840191505092915050565b600061129a6023836118f4565b91507f45524332303a207472616e7366657220746f20746865207a65726f206164647260008301527f65737300000000000000000000000000000000000000000000000000000000006020830152604082019050919050565b60006113006022836118f4565b91507f43616e27742067697665206d6f7265207468616e2035207465737420746f6b6560008301527f6e730000000000000000000000000000000000000000000000000000000000006020830152604082019050919050565b60006113666026836118f4565b91507f4f776e61626c653a206e6577206f776e657220697320746865207a65726f206160008301527f64647265737300000000000000000000000000000000000000000000000000006020830152604082019050919050565b60006113cc6022836118f4565b91507f45524332303a20617070726f766520746f20746865207a65726f20616464726560008301527f73730000000000000000000000000000000000000000000000000000000000006020830152604082019050919050565b6000611432601d836118f4565b91507f45524332303a20696e73756666696369656e7420616c6c6f77616e63650000006000830152602082019050919050565b60006114726026836118f4565b91507f45524332303a207472616e7366657220616d6f756e742065786365656473206260008301527f616c616e636500000000000000000000000000000000000000000000000000006020830152604082019050919050565b60006114d86020836118f4565b91507f4f776e61626c653a2063616c6c6572206973206e6f7420746865206f776e65726000830152602082019050919050565b60006115186025836118f4565b91507f45524332303a207472616e736665722066726f6d20746865207a65726f20616460008301527f64726573730000000000000000000000000000000000000000000000000000006020830152604082019050919050565b600061157e6024836118f4565b91507f45524332303a20617070726f76652066726f6d20746865207a65726f2061646460008301527f72657373000000000000000000000000000000000000000000000000000000006020830152604082019050919050565b60006115e46011836118f4565b91507f4e6f7420656e6f75676820746f6b656e730000000000000000000000000000006000830152602082019050919050565b60006116246025836118f4565b91507f45524332303a2064656372656173656420616c6c6f77616e63652062656c6f7760008301527f207a65726f0000000000000000000000000000000000000000000000000000006020830152604082019050919050565b600061168a601f836118f4565b91507f45524332303a206d696e7420746f20746865207a65726f2061646472657373006000830152602082019050919050565b6116c681611999565b82525050565b6116d5816119a3565b82525050565b60006020820190506116f06000830184611236565b92915050565b600060208201905061170b6000830184611245565b92915050565b6000602082019050818103600083015261172b8184611254565b905092915050565b6000602082019050818103600083015261174c8161128d565b9050919050565b6000602082019050818103600083015261176c816112f3565b9050919050565b6000602082019050818103600083015261178c81611359565b9050919050565b600060208201905081810360008301526117ac816113bf565b9050919050565b600060208201905081810360008301526117cc81611425565b9050919050565b600060208201905081810360008301526117ec81611465565b9050919050565b6000602082019050818103600083015261180c816114cb565b9050919050565b6000602082019050818103600083015261182c8161150b565b9050919050565b6000602082019050818103600083015261184c81611571565b9050919050565b6000602082019050818103600083015261186c816115d7565b9050919050565b6000602082019050818103600083015261188c81611617565b9050919050565b600060208201905081810360008301526118ac8161167d565b9050919050565b60006020820190506118c860008301846116bd565b92915050565b60006020820190506118e360008301846116cc565b92915050565b600081519050919050565b600082825260208201905092915050565b600061191082611999565b915061191b83611999565b9250827fffffffffffffffffffffffffffffffffffffffffffffffffffffffffffffffff038211156119505761194f611a15565b5b828201905092915050565b600061196682611979565b9050919050565b60008115159050919050565b600073ffffffffffffffffffffffffffffffffffffffff82169050919050565b6000819050919050565b600060ff82169050919050565b60005b838110156119ce5780820151818401526020810190506119b3565b838111156119dd576000848401525b50505050565b600060028204905060018216806119fb57607f821691505b60208210811415611a0f57611a0e611a44565b5b50919050565b7f4e487b7100000000000000000000000000000000000000000000000000000000600052601160045260246000fd5b7f4e487b7100000000000000000000000000000000000000000000000000000000600052602260045260246000fd5b6000601f19601f8301169050919050565b611a8d8161195b565b8114611a9857600080fd5b50565b611aa481611999565b8114611aaf57600080fd5b5056fea26469706673582212209b35225d501e5fcd46235b412e3531412f724b9fbfeac53c71e48e6570becae964736f6c63430008000033",
  "immutableReferences": {},
  "source": "// SPDX-License-Identifier: MIT\npragma solidity ^0.8.0;\nimport \"@openzeppelin/contracts/token/ERC20/ERC20.sol\";\nimport \"@openzeppelin/contracts/access/Ownable.sol\";\n\ncontract Token is ERC20, Ownable {\n    constructor() ERC20(\"PreToken\", \"PRE\") {\n        _mint(address(this), 10000000 * 10**18);\n    }\n\n    function mint(address to, uint256 amount) external onlyOwner {\n        _mint(to, amount);\n    }\n\n     function giveTestTokens() public payable{\n        require(balanceOf(msg.sender) <= 5 * 10**18, \"Can't give more than 5 test tokens\");\n        \n        uint256 preBal = balanceOf(address(this));\n        require(preBal >= 1000 * 10**18, \"Not enough tokens\");\n\n        _transfer(address(this), msg.sender, 5 * 10**18);\n    }\n}",
  "sourcePath": "/Users/rahulbansal/Desktop/PreMarket/contracts/Token.sol",
  "compiler": {
    "name": "solc",
    "version": "0.8.0+commit.c7dfd78e.Emscripten.clang"
  },
  "schemaVersion": "3.4.6",
  "updatedAt": "2022-05-29T19:56:36.201Z",
  "networkType": "ethereum",
  "devdoc": {
    "kind": "dev",
    "methods": {
      "allowance(address,address)": {
        "details": "See {IERC20-allowance}."
      },
      "approve(address,uint256)": {
        "details": "See {IERC20-approve}. NOTE: If `amount` is the maximum `uint256`, the allowance is not updated on `transferFrom`. This is semantically equivalent to an infinite approval. Requirements: - `spender` cannot be the zero address."
      },
      "balanceOf(address)": {
        "details": "See {IERC20-balanceOf}."
      },
      "decimals()": {
        "details": "Returns the number of decimals used to get its user representation. For example, if `decimals` equals `2`, a balance of `505` tokens should be displayed to a user as `5.05` (`505 / 10 ** 2`). Tokens usually opt for a value of 18, imitating the relationship between Ether and Wei. This is the value {ERC20} uses, unless this function is overridden; NOTE: This information is only used for _display_ purposes: it in no way affects any of the arithmetic of the contract, including {IERC20-balanceOf} and {IERC20-transfer}."
      },
      "decreaseAllowance(address,uint256)": {
        "details": "Atomically decreases the allowance granted to `spender` by the caller. This is an alternative to {approve} that can be used as a mitigation for problems described in {IERC20-approve}. Emits an {Approval} event indicating the updated allowance. Requirements: - `spender` cannot be the zero address. - `spender` must have allowance for the caller of at least `subtractedValue`."
      },
      "increaseAllowance(address,uint256)": {
        "details": "Atomically increases the allowance granted to `spender` by the caller. This is an alternative to {approve} that can be used as a mitigation for problems described in {IERC20-approve}. Emits an {Approval} event indicating the updated allowance. Requirements: - `spender` cannot be the zero address."
      },
      "name()": {
        "details": "Returns the name of the token."
      },
      "owner()": {
        "details": "Returns the address of the current owner."
      },
      "renounceOwnership()": {
        "details": "Leaves the contract without owner. It will not be possible to call `onlyOwner` functions anymore. Can only be called by the current owner. NOTE: Renouncing ownership will leave the contract without an owner, thereby removing any functionality that is only available to the owner."
      },
      "symbol()": {
        "details": "Returns the symbol of the token, usually a shorter version of the name."
      },
      "totalSupply()": {
        "details": "See {IERC20-totalSupply}."
      },
      "transfer(address,uint256)": {
        "details": "See {IERC20-transfer}. Requirements: - `to` cannot be the zero address. - the caller must have a balance of at least `amount`."
      },
      "transferFrom(address,address,uint256)": {
        "details": "See {IERC20-transferFrom}. Emits an {Approval} event indicating the updated allowance. This is not required by the EIP. See the note at the beginning of {ERC20}. NOTE: Does not update the allowance if the current allowance is the maximum `uint256`. Requirements: - `from` and `to` cannot be the zero address. - `from` must have a balance of at least `amount`. - the caller must have allowance for ``from``'s tokens of at least `amount`."
      },
      "transferOwnership(address)": {
        "details": "Transfers ownership of the contract to a new account (`newOwner`). Can only be called by the current owner."
      }
    },
    "version": 1
  },
  "userdoc": {
    "kind": "user",
    "methods": {},
    "version": 1
  }
}